:100000000C942A000C943F000C943F000C943F0089
:100010000C943F000C943F000C943F000C943F0064
:100020000C943F000C943F000C943F000C943F0054
:100030000C943F000C943F000C943F000C943F0044
:100040000C943F000C943F000C943F000C943F0034
:100050000C943F0011241FBECFE5D8E0DEBFCDBF1A
:1000600010E0A0E6B0E0E8E1F2E002C005900D92F9
:10007000A437B107D9F70E9441000C940A010C94EF
:100080000000CF93DF93CDB7DEB764970FB6F89437
:10009000DEBF0FBECDBF84E1E0E6F0E0DE011196E9
:1000A00001900D928A95E1F78FEF8ABB84BB81BBEB
:1000B00015BA12BA82E08BBB2FE030E025C0C9012F
:1000C0006AE070E00E94E200FC01EE0FFF1F81E099
:1000D00090E08C0F9D1FE80FF91F808182BB660F97
:1000E000771FE1E0F0E0EC0FFD1FE60FF71F8081C6
:1000F00085BB9FE34DE083E0915040408040E1F7B5
:1001000000C000002150310912161306C4F284E029
:100110008BBB25E030E025C0C9016AE070E00E9499
:10012000E200FC01EE0FFF1F81E090E08C0F9D1FAD
:10013000E80FF91F808182BB660F771FE1E0F0E0D6
:10014000EC0FFD1FE60FF71F808185BB9FE34DE09D
:1001500083E0915040408040E1F700C00000215012
:10016000310912161306C4F288E08BBB2FE030E091
:1001700025C0C9016AE070E00E94E200FC01EE0FB8
:10018000FF1F81E090E08C0F9D1FE80FF91F808119
:1001900082BB660F771FE1E0F0E0EC0FFD1FE60F7A
:1001A000F71F808185BB9FE34DE083E09150404085
:1001B0008040E1F700C000002150310912161306FB
:1001C000C4F278CF97FB072E16F4009407D077FD82
:1001D00009D00E94F60007FC05D03EF49095819569
:1001E0009F4F0895709561957F4F0895AA1BBB1B83
:1001F00051E107C0AA1FBB1FA617B70710F0A61B27
:10020000B70B881F991F5A95A9F780959095BC0147
:08021000CD010895F894FFCF21
:100218003F0006005B004F0066006D007D00070090
:040228007F006F00E4
:00000001FF
